:020000040800F2
:10000000B8070020CD010008B51C000859130008EE
:10001000B11C00085F0300081B3D00080000000041
:10002000000000000000000000000000F9200008AF
:1000300021080008000000003D1D000841230008C1
:10004000E7010008E7010008E7010008E7010008F0
:10005000E7010008E7010008510900085B090008F2
:10006000E7010008E701000865090008E70100084A
:10007000E7010008E7010008E7010008E7010008C0
:10008000E7010008E7010008E7010008E7010008B0
:10009000E7010008E7010008E7010008E7010008A0
:1000A000E7010008E7010008E7010008E701000890
:1000B000B52F0008E7010008C12F0008E70100087C
:1000C000E7010008E7010008E7010008E701000870
:1000D000E7010008E701000859380008593900080D
:1000E000E7010008E7010008E7010008E701000850
:1000F000E7010008E7010008E7010008E701000840
:10010000E7010008E7010008E7010008E70100082F
:10011000E7010008E701000881300008A930000865
:10012000E7010008E7010008E7010008E70100080F
:1001300000F002F800F03AF80AA090E8000C8244BF
:100140008344AAF10107DA4501D100F02FF8AFF29C
:10015000090EBAE80F0013F0010F18BFFB1A43F0A5
:10016000010318472849000048490000103A24BFFD
:1001700078C878C1FAD8520724BF30C830C144BF0C
:1001800004680C607047000000230024002500264E
:10019000103A28BF78C1FBD8520728BF30C148BFEA
:1001A0000B6070471FB51FBD10B510BD00F031F8D2
:1001B0001146FFF7F7FF04F06FFB00F04FF803B4B0
:1001C000FFF7F2FF03BC00F057F800000948804732
:1001D00009480047FEE7FEE7FEE7FEE7FEE7FEE729
:1001E000FEE7FEE7FEE7FEE704480549054A064B41
:1001F000704700004523000831010008B8010020C5
:10020000B8070020B8030020B803002070477047EB
:100210007047754600F02CF8AE4605006946534617
:1002200020F00700854618B020B5FFF7DDFFBDE8D8
:1002300020404FF000064FF000074FF000084FF04D
:10024000000B21F00701AC46ACE8C009ACE8C009DE
:10025000ACE8C009ACE8C0098D46704710B504464B
:10026000AFF300802046BDE81040FFF7A8BF0000B4
:10027000004870475401002001491820ABBEFEE73A
:10028000260002007047000008B50121102001F08F
:1002900067FD4FF44070ADF8000010208DF80300AA
:1002A00003208DF802006946044800F08FFB4FF4EC
:1002B0004071024800F069FC08BD000000100140D8
:1002C0002DE9F0410446002500260027C4F3072647
:1002D000E7B201F0A1F8A02001F01AF901F0E8F866
:1002E000304601F015F901F0E3F8384601F010F955
:1002F00001F0DEF801F090F8A12001F009F901F019
:10030000D7F801F02BF8054601F0ACF82846BDE817
:10031000F0812DE9F04104460D4600260027C4F384
:100320000726E7B201F078F8A02001F0F1F801F01B
:10033000BFF8304601F0ECF801F0BAF8384601F0A9
:10034000E7F801F0B5F8284601F0E2F801F0B0F85E
:1003500001F088F80A2000F064FABDE8F08100BFDF
:10036000FEE7000010B52A4890F82B0001284ED176
:100370002848007820B1012817D0022845D13BE059
:100380000121254800F0F6FB70B9322000F049FA4F
:100390000121214800F0EEFB18B901201D49087029
:1003A00002E000201B49087030E04FF416701B4932
:1003B000086013E019480068401E184908600120D1
:1003C00000F02FFA15480068642807D8002011496A
:1003D00008701249086000F0CBFD05E001210E48CD
:1003E00000F0C8FB0028E5D000BF0A48007810B133
:1003F00002200849087009E0012000F0D5F801F05A
:1004000083FA00200349087000E000BF00BF10BD60
:1004100068000020040000200008014008000020BF
:1004200010B52248007820B1012818D0022839D10F
:100430002CE01F4890F8220001280CD11C4890F8AD
:100440005000012807D001201849087014201849CD
:1004500081F8230002E000201449087023E01448CA
:1004600090F823000A2810DC114890F8230060B1AE
:100470000A2000F0D6F903F053FC012802D1052030
:1004800003F0B0FC0220094908700CE0084890F81D
:10049000230030B903F044FC012802D1022000F00F
:1004A000CDFB00E000BF00BF10BD00000C0000202D
:1004B0006800002010B504F065FA04F039FA10BDA8
:1004C00010B52F48007810B1012855D10EE004F086
:1004D0009BFA6F2809D004F097FA2A490870012086
:1004E0002749087000202849087046E004F08CFA7B
:1004F00026490870084600782249097888423AD08F
:100500002348407818B122484078042829D104F0C3
:100510007BFA1E490870084600781A4908701C4882
:1005200040681B49097C88420DD203F0F9FBA0B159
:100530001748406818B1092003F054FC0DE003206F
:1005400003F050FC09E013A003F07AF9104890F88A
:10055000500010B9012000F071FB0020084908701C
:1005600009E003F0DDFB012802D1062003F03AFC8C
:1005700000200349087000E000BF00BF10BD00006C
:100580003000002032000020330000203100002025
:1005900068000020CED2D2AAB3F6B5B0A3A1A3A121
:1005A000A3A1A3A10000000010B50446012C02D0B5
:1005B000022C5DD12BE030484068401C2E49486039
:1005C00008468068401C88600846C068401CC860B7
:1005D00000F09EFD00F020FD274840682649097C78
:1005E000884210D3002003F0FDFB234890F8500010
:1005F000012803D00120204981F8220014201E493F
:1006000081F8230002E0092003F0ECFB31E01B48F5
:10061000407978B119484079FF280BD017494879BB
:1006200002F010FB144991F820000122032102F08E
:1006300091F906E0104991F820000022032102F010
:1006400089F90D4840680C49097C88420FD3002085
:1006500003F0C8FB084890F85000012803D001209F
:10066000054981F822001420034981F8230000BFC6
:1006700000BF00BF10BD000068000020C8000020BF
:1006800008B50121052001F06BFB0120ADF8000049
:1006900048208DF803006946014800F097F908BD2D
:1006A0000008014008B50121102001F059FB80200D
:1006B000ADF8000048208DF8030003208DF80200FB
:1006C0006946024800F082F908BD000000100140B0
:1006D00008B50121102001F043FB8020ADF8000097
:1006E00010208DF8030003208DF8020069460248AF
:1006F00000F06CF908BD00000010014010B5FFF7D4
:10070000E7FF40210A4800F040FA052000F095F884
:100710008021074800F039FA052000F08EF880218A
:10072000034800F030FA052000F087F810BD000003
:100730000010014010B5FFF7CBFF80210C4800F0FE
:1007400022FA40210A4800F020FA052000F075F84E
:100750008021074800F017FA052000F06EF880218C
:10076000034800F012FA052000F067F810BD000001
:100770000010014010B50446FFF794FF80210D489A
:1007800000F003FA052000F058F84021094800F075
:10079000FCF9052000F051F88021064800F0EAF944
:1007A00028B94021034800F0EEF9002010BD0120D7
:1007B000FCE700000010014070B504460025FFF77B
:1007C00087FF4021154800F0DEF9052000F035F8DC
:1007D00000BF20E0052000F030F804F0800020B1D8
:1007E00080210E4800F0D1F903E080210B4800F091
:1007F000CAF9052000F021F84021084800F0C5F9A9
:10080000052000F01AF84021044800F0BCF9600609
:10081000040E681CC5B2082DDCDB70BD0010014061
:100820007047002106E041F20D4100E0491E002919
:10083000FCD1401E0028F6D17047002105E00321BD
:1008400000E0491E0029FCD1401E0028F7D1704766
:1008500070B5044642F21070B4FBF0F100FB114099
:100860004FF47A71B0FBF1F0C3B2184604F0ECF823
:1008700005462946682003F006FB4FF47A70B4FB66
:10088000F0F100FB11406421B0FBF1F0C3B2184657
:1008900004F0DAF8054629466A2003F0F4FA6420E9
:1008A000B4FBF0F100FB11400A21B0FBF1F3184654
:1008B00004F0CAF8054629466C2003F0E4FA0A2041
:1008C000B4FBF0F100FB1143184604F0BDF80546F7
:1008D00029466E2003F0D7FA70BD10B57921682043
:1008E00003F0D1FA79216A2003F0CDFA79216C2046
:1008F00003F0C9FA79216E2003F0C5FA10BD00009B
:1009000008B50121102001F02BFAC020ADF800003D
:1009100010208DF8030003208DF802006946094875
:1009200000F054F8C021074800F02FF906A002F0AB
:1009300087FF3121482003F0A6FA04A002F080FFCF
:1009400008BD0000001001406161610043434300A5
:1009500010B5012000F00CF810BD10B5022000F019
:1009600007F810BD10B5102000F002F810BD00000F
:10097000014600200022074B1B6803EA0102054BD9
:1009800014331B680B4013B10AB1012000E00020B2
:1009900070470000000401400549096821F010017A
:1009A000034A116011460968014311607047000055
:1009B0000020024001460020034A106800F0380081
:1009C0000843106070470000002002402DE9F0410C
:1009D000024600250026002000230024002791F86D
:1009E00003C00CF00F0591F803C00CF0100CBCF123
:1009F000000F03D091F802C04CEA050591F800C041
:100A0000BCF1000F31D0146800202BE04FF0010C36
:100A10000CFA00F3B1F800C00CEA03069E4220D1A4
:100A200083004FF00F0C0CFA03F7BC4305FA03FCEC
:100A30004CEA040491F803C0BCF1280F06D14FF032
:100A4000010C0CFA00FCC2F814C00AE091F803C0D3
:100A5000BCF1480F05D14FF0010C0CFA00FCC2F8B4
:100A600010C0401C0828D1D31460B1F800C0BCF1FC
:100A7000FF0F34DD546800202EE000F1080C4FF029
:100A8000010808FA0CF3B1F800C00CEA03069E4214
:100A900021D183004FF00F0C0CFA03F7BC4305FA89
:100AA00003FC4CEA040491F803C0BCF1280F05D103
:100AB00000F1080C08FA0CF8C2F8148091F803C091
:100AC000BCF1480F07D100F1080C4FF0010808FAFB
:100AD0000CF8C2F81080401C0828CED35460BDE842
:100AE000F0810000F0B50A46002300240021002513
:100AF00000F00046B6F1004F02D11D4EF16901E051
:100B00001B4E7168C0F3034583B200F44016B6F57E
:100B1000401F08D121F07061154E766826F070668E
:100B2000134F7E6012E000F48016B6F5801F06D1E8
:100B3000032606FA05F4A14341F0706106E0460D74
:100B4000360103FA06F6B14341F0706122B1460D59
:100B5000360103FA06F6314300F00046B6F1004FC5
:100B600002D1034EF16101E0014E7160F0BD000061
:100B7000000001400246002093680B400BB10120A9
:100B800000E000207047416170470161704700003C
:100B900008B54FF6FF70ADF8000010208DF8030087
:100BA00003208DF8020069461748FFF70FFF4FF644
:100BB000FF711548FFF7E7FF4FF6FF70ADF8000033
:100BC00010208DF8030003208DF8020069460F48BD
:100BD000FFF7FCFE4FF6FF710C48FFF7D4FF4FF60E
:100BE000FF70ADF8000010208DF8030003208DF891
:100BF000020069460648FFF7E9FE4FF6FF71044818
:100C0000FFF7C1FF08BD000000080140000C0140D3
:100C100000100140084840680749097C884207D312
:100C2000054840680449097C401A0349486002E0CD
:100C300000200149486070476800002010B5044654
:100C4000012C02D0022C7DD13DE0404890F85000AC
:100C5000002837D103F012F9082003F0C3F801206F
:100C60003A4981F82600FFF7D5FF39A002F0E8FDE8
:100C70000120364981F8500001F015F8142033495D
:100C800081F82A00012081F82400022038490870E8
:100C900038A002F0D5FD00202C4981F8220081F80F
:100CA0002300394908702948406910F1020F02D326
:100CB00000202649486125484069401C2349486175
:100CC00000F026FA3FE0214890F85000002837D184
:100CD00003F0D4F8082003F085F801201B4981F8BF
:100CE0002600FFF797FF29A002F0AAFD012017496F
:100CF00081F8500000F0D7FF1420144981F82A0031
:100D0000012081F8240002201949087019A002F07E
:100D100097FD00200D4981F8220081F823001A492F
:100D200008700A48406910F1020F02D300200749F9
:100D3000486106484069401C0449486100F0E8F9F0
:100D400001E0FFE700BF00BF10BD00006800002009
:100D5000D0FDC5A5B3F6B5B0A3ACBDF8C8EBB3F6EE
:100D6000B5B0BCECB2E2C4A3CABD320D0A000000AB
:100D70000D000020BDFBD6B9B5F4B5B0CAB1BCE4D6
:100D8000BCECB2E20D0A00000C000020B3ACCAB10A
:100D9000B3F6B5B0A3ACBDF8C8EBB3F6B5B0BCECD8
:100DA000B2E2C4A3CABD320D0A00000010B5044669
:100DB000012C02D0022C69D140E036A002F040FDA7
:100DC00003F05CF8042003F00DF83548806910F159
:100DD000020F02D300203249886131488069401CEB
:100DE0002F49886100F094F92D4840682C49097C0E
:100DF000884204D301202A4981F8220003E0002020
:100E0000274981F822000020254981F85000254912
:100E10000870234981F8480000F040FF0020204975
:100E200081F82A0081F82400012003F03FFC40F201
:100E3000DC50FFF7F6FC00F015FE28E01AA002F0E7
:100E4000FFFC03F01BF8022002F0CCFF00F026FFAD
:100E5000052001F013FF0020114981F8220081F8DC
:100E60005000104908700E4981F8480081F82A00A6
:100E700081F8240003F01AFC41F28830FFF7D1FC1E
:100E8000782003F0BFFA02F0F9FF00BF00BF00BFF7
:100E900010BD0000B3F6B5B0C1CB0D0A00000000D4
:100EA000680000200D000020B3F6B5B0CAA7B0DC82
:100EB000B3ACCAB1CEB4B3F60D0A000010B52A48DF
:100EC000007807284CD2DFE800F004050C23272B1C
:100ED000350046E00120FFF7B1FE022022490870EC
:100EE0003FE0224890F84800012802D104201E4922
:100EF00008701E4890F82A0010B903201A4908709B
:100F00001A48407F012802D105201749087028E0BF
:100F10000220FFF74BFF24E00120FFF747FF20E00E
:100F200000F0BCFE0020114981F8240006200E4983
:100F3000087016E00D48407F88B900F0B4FE01202B
:100F40000A4981F8260002F099FF082002F04AFFC2
:100F50000220054908700120044981F8240000E0BE
:100F600000BF00BF10BD00000D0000206800002081
:100F700010B520210448FFF706FE0020034981F840
:100F80002B0081F8270010BD0008014068000020F8
:100F900010B520210448FFF7F8FD0120034981F82E
:100FA0002B0081F8270010BD0008014068000020D8
:100FB00008B50121042000F0D3FE2020ADF8000088
:100FC00002208DF8020010208DF8030069460448C5
:100FD000FFF7FCFC20210248FFF7D7FD08BD000009
:100FE0000008014008B50121042000F0B9FE0220EC
:100FF000ADF8000010208DF8030003208DF80200EA
:1010000069460448FFF7E2FC02210248FFF7BBFDF6
:1010100008BD00000008014070B500240025012033
:10102000FFF74EF9394908700220FFF749F93749AF
:10103000087400BF00BF0320FFF742F9054644EAE9
:1010400005640420FFF73CF9054644EA0544052001
:10105000FFF736F9054644EA05240620FFF730F984
:1010600005462C4329484461002400250720FFF74A
:1010700027F9054644EA05640820FFF721F90546EB
:1010800044EA05440920FFF71BF9054644EA052414
:101090000A20FFF715F905462C431C4884610024FB
:1010A00000250B20FFF70CF9054644EA05640C20E7
:1010B000FFF706F9054644EA05440D20FFF700F95D
:1010C000054644EA05240E20FFF7FAF805462C43AE
:1010D0000E488460002400250F20FFF7F1F8054634
:1010E00044EA05641020FFF7EBF8054644EA05449E
:1010F0001120FFF7E5F8054644EA05241220FFF722
:10110000DFF805462C430148C46070BD680000202C
:1011100010B53F4801780120FFF7FBF83220FFF7B8
:1011200080FB3B48007C002805DD3948017C02201B
:10113000FFF7EFF803E001210220FFF7EAF8344857
:101140004069010E0320FFF7E4F831484069C0F31D
:1011500007410420FFF7DDF82D48808AC0F30721FE
:101160000520FFF7D6F82A48017D0620FFF7D1F8C1
:1011700027488069010E0720FFF7CBF824488069D3
:10118000C0F307410820FFF7C4F82148008BC0F3E3
:1011900007210920FFF7BDF81D48017E0A20FFF74F
:1011A000B8F81B488068010E0B20FFF7B2F818480A
:1011B0008068C0F307410C20FFF7ABF814480089A2
:1011C000C0F307210D20FFF7A4F81148017A0E2083
:1011D000FFF79FF80E48C068010E0F20FFF799F83F
:1011E0000B48C068C0F307411020FFF792F8084889
:1011F0008089C0F307211120FFF78BF80448017B99
:101200001220FFF786F83220FFF70BFB10BD00001D
:101210006800002010B500240020FFF751F80446B4
:10122000CC2C05D10DA002F00BFBFFF7F5FE13E06F
:101230000FA002F005FB002012490870012008747D
:101240000020486188618860C860CC21FFF761F8A0
:10125000FFF75EFFFFF7E0FE10BD0000D3CECFB773
:10126000B2CECAFDD5FDB3A3B6C1C8A10D0A000018
:10127000D3CECFB7B2CECAFDB3F5CABCBBAF0D0A51
:1012800000000000680000200020174908700220BC
:1012900008740020487048608860C86048618861B0
:1012A00081F8230081F8220081F82A0081F850009B
:1012B00008774877887781F8270081F8280081F837
:1012C00029000863C862886348630864C863C86407
:1012D000012081F824000020486081F826000120C8
:1012E00081F82500704700006800002010B5002438
:1012F00080210348FFF73EFC0446204610BD000055
:101300000008014010B510210148FFF733FC10BD63
:101310000010014010B50E4B1A681B1D18681B1DEC
:1013200019680C4C2270130A6370130CA370130E0F
:10133000E3702071030A6371030CA371030EE37160
:1013400021720B0A63720B0CA3720B0EE37210BDB9
:10135000E8F7FF1FBC00002000BFFEE770B500F0FB
:1013600045F84FF480711548FFF70FFC00F028F89E
:1013700000251EE06006040E4FF400710F48FFF7D1
:1013800002FC1420FFF759FA4FF400710B48FFF7E5
:10139000FCFB1420FFF751FA4FF480710748FFF768
:1013A000E9FB10B144F0010401E024F00104681CE1
:1013B000C5B2082DDEDB204670BD000000100140E4
:1013C00008B50121102000F0CBFC4FF48070ADF87F
:1013D000000048208DF8030003208DF802006946C4
:1013E0000148FFF7F3FA08BD0010014008B50121DC
:1013F000102000F0B5FC4FF48070ADF80000102014
:101400008DF8030003208DF8020069460148FFF7BC
:10141000DDFA08BD0010014010B5FFF7E7FF14200A
:10142000FFF70BFA4FF480710D48FFF7AEFB4FF456
:1014300000710B48FFF7A9FB1420FFF7FEF94FF4EA
:1014400080710748FFF79FFB1420FFF7F6F94FF470
:1014500000710348FFF797FB1420FFF7EEF910BD6A
:101460000010014010B5FFF7C1FF4FF400710F48A5
:10147000FFF789FB1420FFF7E0F94FF480710B4868
:10148000FFF781FB1420FFF7D8F94FF400710748EC
:10149000FFF77BFB1420FFF7D0F94FF4807103486E
:1014A000FFF773FB1420FFF7C8F910BD00100140CF
:1014B00010B50024FFF784FF4FF480711348FFF745
:1014C00064FB1420FFF7B9F94FF400710F48FFF7E0
:1014D0005CFB1420FFF7B1F909E0601CC4B241F2D3
:1014E0008830844203DDFFF7BDFF012010BD4FF4BB
:1014F00080710648FFF73EFB0028EED14FF40071E3
:101500000248FFF740FB0020F0E700000010014018
:1015100070B504460025FFF769FF00BF24E04FF4D3
:1015200000711748FFF72FFB1420FFF786F904F02E
:10153000800028B14FF480711148FFF726FB04E0CA
:101540004FF480710E48FFF71EFB1420FFF775F96A
:101550004FF400710A48FFF718FB1420FFF76DF9EC
:101560006006040E681CC5B2082DD8DB4FF400716C
:101570000348FFF708FB1420FFF75FF970BD000078
:101580000010014008B50121082000F0E9FB4FF4EC
:10159000E040ADF8000048208DF80300694602489D
:1015A000FFF714FA08BD0000000C014010B5044616
:1015B00014B900F037F801E000F02CF810BD00007D
:1015C00010B580210148FFF7E0FA10BD000C014082
:1015D00010B580210148FFF7D6FA10BD000C01407C
:1015E00008B50121082000F0BBFBC020ADF80000C9
:1015F00010208DF8030003208DF80200694604488E
:10160000FFF7E4F9C0210248FFF7BFFA08BD000068
:10161000000C014010B540210148FFF7B6FA10BD9B
:10162000000C014010B540210148FFF7ACFA10BD95
:10163000000C014010B5002400BF04E00020084960
:101640000855601CC4B2402CF8DB00200549086036
:1016500005490870054908603220FFF7E2F810BD1F
:101660000801002044000020480000204C00002019
:1016700010B57748007820B1012837D002286FD103
:1016800041E07448006803282FD30A20FFF7C9F807
:1016900071480078AA281FD16F484078C01C6D4956
:1016A0000968884203D101206949087010BD6B4860
:1016B0000068401C6949086008460068642814D323
:1016C00067A002F0BDF802F0F3FBFFF7B3FF0020C4
:1016D0005F4908700120E9E764A002F0B1F8FFF764
:1016E000A9FF00205A490870E0E7AEE000F0F0F8EA
:1016F00018B102205649087004E0FFF79BFF002054
:1017000053490870A1E05448C078302835D006DC31
:10171000012809D005280FD0062876D114E03128F9
:1017200051D0CC28F9D152E003F070F8FFF782FFD6
:1017300000204749087080E04EA002F081F802F0D6
:10174000B7FB02F0F3FB78E04DA002F079F802F06D
:10175000AFFB41480079012803D100F041FA02E0D3
:1017600072E000F02FFA3C484079012802D1FFF7DF
:101770000FFC01E0FFF7FCFB5FE045A002F060F822
:10178000AA2002F061F9032002F05EF9022002F0C3
:101790005BF9302002F058F9312002F055F9DD20D4
:1017A00002F052F90A2002F04FF9DD210020FEF785
:1017B000B0FD02F063FB012002F014FB41F288301F
:1017C000FFF72FF839E036A002F03AF835E022486A
:1017D00040790A2826D2DFE800F02524250B1C25B5
:1017E0002505250802F07EFC1DE002F001FC1AE050
:1017F0002EA002F025F802F05BFB304890F825009F
:10180000052803D102F076FD02E013E002F0F2FCBD
:1018100009E02BA002F014F802F04AFB02F07CFE73
:1018200001E000E000BF00BFFFF704FF002008490F
:10183000087002E002F03CFB00BF00BFFFF7FAFEB9
:1018400000200349087000E000BF00BF00202DE722
:101850004800002044000020080100204C00002027
:10186000D6B8C1EEB4EDCEF30D0A000063756F7704
:10187000756F0000B2E9D1AFB2CECAFD0D0A00000B
:10188000C9E8D6C3B2CECAFD3A200D0A0000000056
:10189000BBD6B8B4B3F6B3A7C9E8D6C3200D0A00C7
:1018A000D6D8D0C2C6F4B6AF200D0A00D6A7B8B6B7
:1018B000C7EBC7F3D6B8C1EE3A0D0A0068000020A6
:1018C000D4C6C9CFB7D6D6B8C1EE3A0D0A000000CB
:1018D00000220021012103E00948405C4240491CEC
:1018E00008480068401E8842F6D80548054B1B682A
:1018F000C05C904201D1012070470020FCE700004D
:10190000080100204400002030B58FB000250024DD
:1019100000BF03E000200DF80400641C3C2CF9D348
:10192000AA208DF8000018208DF8010002208DF803
:101930000200CC208DF8030001208DF8040008205F
:101940008DF8050001208DF806003D4800788DF8DF
:1019500007003B4908880979000A40EA0160C0B2E3
:101960008DF80800364801680079020442EA114007
:10197000C0B28DF80900324801680079020242EADB
:101980001160C0B28DF80A002D4800798DF80B0067
:101990002B484068000C8DF80C0001208DF80D00DC
:1019A00000208DF80E008DF80F008DF80F008DF8D7
:1019B00011008DF812008DF813008DF814008DF8C9
:1019C00015008DF816008DF817008DF818008DF8A9
:1019D0001900DD208DF81A000A208DF81B00012463
:1019E00003E01DF804004540641C192CF9D3E8B24B
:1019F0008DF81900002404E01DF8040002F024F81A
:101A0000641C1C2CF8D30FA001F01AFF002407E07F
:101A10001DF8040001F0F6FE10A001F011FF641C97
:101A20001C2CF5D30EA001F00BFF0548D0E90030C7
:101A30005A1C40F100000249C1E900200FB030BD3E
:101A400028000020C9CFB4ABD5CBC4BFD0C5CFA22E
:101A500028D6F7B0E5B7A2293A0D0A002000000009
:101A60000D0A000030B58FB00025002400BF03E050
:101A700000200DF80400641C3C2CF9D3AA208DF83A
:101A8000000018208DF8010002208DF80200CC2003
:101A90008DF8030001208DF8040008208DF8050062
:101AA00001208DF806003E4800788DF807003C497B
:101AB00008880979000A40EA0160C0B28DF8080080
:101AC000374801680079020442EA1140C0B28DF83B
:101AD0000900334801680079020242EA1160C0B28D
:101AE0008DF80A002E4800798DF80B002C484068CC
:101AF000000C8DF80C0003208DF80D0000208DF8EF
:101B00000E008DF80F008DF80F008DF811008DF884
:101B1000120001208DF8130000208DF814008DF8BC
:101B200015008DF816008DF817008DF818008DF847
:101B30001900DD208DF81A000A208DF81B00012401
:101B400003E01DF804004540641C192CF9D3E8B2E9
:101B50008DF81900002404E01DF8040001F074FF62
:101B6000641C1C2CF8D30FA001F06AFE002407E0CF
:101B70001DF8040001F046FE10A001F061FE641C97
:101B80001C2CF5D30EA001F05BFE0548D0E9003017
:101B90005A1C40F100000249C1E900200FB030BDDD
:101BA00028000020C9CFB4ABD5CBC4BFD0C5CFA2CD
:101BB00028D6F7B0E5B7A2293A0D0A0020000000A8
:101BC0000D0A000010B508210348FEF7DCFF0020D5
:101BD000024981F8280010BD001001406800002073
:101BE00010B508210348FEF7D0FF0120024981F813
:101BF000280010BD001001406800002008B5012138
:101C0000102000F0ADF80820ADF8000010208DF88D
:101C1000030003208DF8020069460448FEF7D6FE53
:101C200008210248FEF7B1FF08BD00000010014086
:101C300010B501210348FEF7A6FF0020024981F8F4
:101C4000290010BD001001406800002010B50121DE
:101C50000348FEF79AFF0120024981F8290010BDD0
:101C6000001001406800002008B50121102000F09C
:101C700077F80120ADF8000010208DF80300032054
:101C80008DF8020069460448FEF7A0FE01210248D3
:101C9000FEF77BFF08BD00000010014010B5CC200E
:101CA00001F022FF10BD10B5AA2001F01DFF10BDEC
:101CB00000BFFEE77047000070B5002100230F222F
:101CC000C47804B3154C246804F4E064C4F5E064FB
:101CD000210AC1F10403CA40447804FA03F184786C
:101CE0001440214309010E4C0678A155047804F0F4
:101CF0001F050124AC4005786D11AD0005F1E0250C
:101D0000C5F8004109E0047804F01F050124AC4047
:101D1000044D0678761145F8264070BD0CED00E0C4
:101D200000E400E080E100E002490143024A116062
:101D3000704700000000FA050CED00E0704700005D
:101D400029B1064AD2690243044BDA6104E0034A2E
:101D5000D2698243014BDA617047000000100240F3
:101D600029B1064A92690243044B9A6104E0034A8E
:101D700092698243014B9A61704700000010024053
:101D80000149C864704700000000424210B500F0ED
:101D90003BF84FF4803000F0F9F800F055F90446B4
:101DA000012C2FD11020FEF7F7FD0220FEF702FED6
:101DB000002000F0DFF8002000F01AF9A00200F087
:101DC0000BF94FF4E011200400F024F9012000F099
:101DD0001BF900BF392000F0A7F80028FAD0022034
:101DE00000F026F900BF00F0BDF80828FBD1012063
:101DF000FFF7C6FF01210846FFF7A2FF01211D20C2
:101E0000FFF7AEFF10BD00000F48006840F0010072
:101E10000D490860084640680C4908400A49486076
:101E2000084600680A4908400749086008460068F3
:101E300020F4802008600846406820F4FE004860D6
:101E40004FF41F0088607047001002400000FFF848
:101E5000FFFFF6FE30B500210022002400232D4DA7
:101E60006D6805F00C0121B1042905D0082923D1A2
:101E700005E0294D056022E0274D05601FE0254D56
:101E80006D6805F47012234D6D6805F480340225E9
:101E900005EB92421CB9214D554305600BE01D4DE9
:101EA0006D6805F400351DB11C4D5543056002E019
:101EB000194D5543056002E0174D056000BF00BF96
:101EC000144D6D6805F0F0010909154D6B5C05684E
:101ED000DD4045600F4D6D6805F4E061090A104D65
:101EE0006B5C4568DD4085600A4D6D6805F46051A6
:101EF000C90A0B4D6B5C4568DD40C560054D6D68DA
:101F000005F44041890B074D6B5CC568B5FBF3F5E3
:101F1000056130BD0010024000127A0000093D004A
:101F2000510000206100002010B50146002200236E
:101F300000204A11012A02D1094C236806E0022A36
:101F400002D1074C236A01E0054C636A01F01F02CD
:101F5000012494401C400CB1012000E0002010BD81
:101F6000001002400248406800F00C00704700007A
:101F70000010024001460020034A506820F0F000A3
:101F80000843506070470000001002401149096882
:101F900021F480310F4A11601146096821F4802133
:101FA0001160B0F5803F03D0B0F5802F0ED106E070
:101FB0000849096841F48031064A116007E0054983
:101FC000096841F4A021034A116000E000BF00BF8E
:101FD000704700000010024001460020034A50688C
:101FE00020F4E06008435060704700000010024099
:101FF00001460020034A506820F4605040EAC100C6
:1020000050607047001002400149086670470000A8
:102010000000424202460020044B586820F47C1025
:1020200042EA01031843014B586070470010024018
:1020300001460020034A506820F003000843506026
:10204000704700000010024038B5002000900024C6
:10205000002500BF3120FFF767FF05460098401CB0
:1020600000900098B0F5A06F01D0002DF2D0312083
:10207000FFF75AFF08B1012400E00024204638BDD4
:102080000EB500F029F801211020FFF759FE42F2A9
:102090000F70ADF8040041F61F40ADF8000069462E
:1020A0000C4801F047F801210A4801F005F8002129
:1020B000084801F036F80021064801F08DF80122A9
:1020C0001146044801F024F80121024801F003F808
:1020D0000EBD00000010004008B536208DF800004D
:1020E00000208DF801008DF8020001208DF803001A
:1020F0006846FFF7E1FD08BD7047000030B58FB0BE
:102100000025002400BF03E000200DF80400641C3B
:102110003C2CF9D337A001F093FBAA208DF80000E6
:1021200018208DF8010002208DF80200CC208DF8D7
:10213000030001208DF804008DF8050037208DF88C
:102140000600FF208DF80700D9208DF80800052033
:102150008DF8090042208DF80A0047208DF80B0009
:1021600031208DF80C0036208DF80D0007208DF8F9
:102170000E0061208DF80F0009208DF8100043201B
:102180008DF8110000208DF8120001208DF8130049
:102190008DF814008DF8150000208DF81600012030
:1021A0008DF8170045208DF81800A9208DF819002A
:1021B000DD208DF81A000A208DF81B00012403E0B1
:1021C0001DF804004540641C192CF9D3002404E0D8
:1021D0001DF8040001F038FC641C1C2CF8D300240A
:1021E00004E01DF8040001F00DFB641C1C2CF8D366
:1021F0000FB030BDB7B5BBD8B2D6CEBBD6B8C1EEE6
:102200000D0A000010B500F001F810BD0CB500205B
:10221000019000903348006840F4803031490860F4
:1022200000BF3048006800F4003000900198401C66
:102230000190009818B90198B0F5A06FF1D1294824
:10224000006800F4003010B10120009001E000208F
:1022500000900098012843D12348006840F0100006
:10226000214908600846006820F00300086008461D
:10227000006840F0020008601A4840681949486048
:102280000846406848600846406840F480604860FE
:102290000846406820F47C1048600846406840F4D6
:1022A000E81048600846006840F08070086000BF91
:1022B0000C48006800F000700028F9D00948406818
:1022C00020F00300074948600846406840F00200DB
:1022D000486000BF0348406800F00C000828F9D1AE
:1022E0000CBD0000001002400020024008B5012192
:1022F0002920FFF735FD01210D48FEF7F3FB0420EF
:10230000ADF8000048208DF8030069460948FEF743
:102310005DFB1820ADF8000048208DF803006946E9
:102320000548FEF753FB02F06FFB0449087008BD37
:102330000002300000140140000C01403100002078
:102340007047000010B51348006840F001001149C3
:10235000086008464068104908400E494860084631
:1023600000680E4908400B4908600846006820F4E0
:10237000802008600846406820F4FE0048604FF462
:102380001F008860FFF73EFF4FF0006004490860BF
:1023900010BD0000001002400000FFF8FFFFF6FE35
:1023A00008ED00E010B5002400BF04E0002008495B
:1023B0000855601CC4B2402CF8DB002005490860B9
:1023C00005490870054908603220FEF72AFA10BD59
:1023D000C80000201C000020200000202400002055
:1023E00010B5A648007820B1012858D0022871D134
:1023F00068E0A3480068052850D31E20FEF711FAB4
:10240000A04800787E2840D19E48C078801D9C4915
:102410000968884225D19CA001F012FA99484078B9
:102420009C490978884202D09648407878B99AA0A9
:1024300001F006FA9749087801F0E4F991488078AC
:10244000944981F8200001208C49087007E095A08C
:1024500001F0F6F9FFF7A6FF002088490870012077
:1024600010BD93480068401C914908600846006808
:10247000B0F5967F12D38FA001F0E2F9FFF792FF3B
:1024800000207E4908700120EAE78DA001F0D8F90C
:10249000FFF788FF002079490870E1E7EBE000F0E2
:1024A0002DF930B188A001F0CBF9022073490870F2
:1024B00007E088A001F0C4F9FFF774FF00206F491E
:1024C0000870D8E086A001F0BBF96E4800790B28AF
:1024D00073D200E0CEE0DFE800F0C5062E343853BA
:1024E000919DA9B5BD0001F017FDF0B9FFF770F897
:1024F000FFF768FBFFF79CFB4FF47A70FEF791F94A
:1025000001F00AFD88B95F4A5179624A92F82000C9
:1025100000F062FC00BF01F0FFFC0128FBD1FFF7D7
:102520004FF8FFF75DFBFFF791FBFFF73BFF002044
:102530005249087097E0574991F8200000F0E8FAF6
:1025400091E00220FEF730F88DE04E48407978B1F6
:102550004C484079FF280BD04A49487900F084FB69
:102560004C4991F820000122042100F0F3F906E023
:10257000484991F820000022042100F0EBF972E0B4
:102580005AA001F05DF93F49487901F03BF940A0BC
:1025900001F056F93B48407920B103280ED00428B9
:1025A00022D116E0002000F069FB3A4991F82000A2
:1025B0000122052100F0CEF91EE053E0032000F0D7
:1025C0005DFB344991F820000122052100F0C2F999
:1025D00012E0042000F052FB2E4991F82000012265
:1025E000052100F0B7F907E02A4991F82000002200
:1025F000052100F0AFF900BF00BF34E02149487960
:1026000000F0D2FC234991F820000122062100F0BD
:10261000A1F928E01B49487900F0B8FC1D4991F860
:1026200020000122072100F095F91CE015494879A6
:1026300000F0FEFA174991F820000122082100F06D
:1026400089F910E0134991F820000122092100F0D6
:102650001FFA08E00F4991F8200001220A2100F03A
:10266000B5F900E000BF00BFFFF79CFE0020034962
:10267000087000E000BF00BF0020F1E6200000204D
:102680001C000020C8000020B3A4B6C8D5FDC8B700
:102690000D0A0000680000204944D5FDC8B70D0AA6
:1026A00000000000B3A4B6C8B4EDCEF33A0D0A00A2
:1026B00024000020D6B8C1EEB4EDCEF30D0A000020
:1026C00063756F77756F0000D0A3D1E9B3C9B9A660
:1026D0000D0A0000D0A3D1E9CAA7B0DC0D0A0000A2
:1026E000D6B4D0D0D6B8C1EE0D0A0000CBF8B6A84B
:1026F000D6B8C1EE3A200D0A0000000030B5002324
:10270000002400210022012203E00F48805C0144E4
:10271000521C0E480068801E9042F6D8C943C1F38F
:102720000723CCB209480068801E074D285C9842F8
:1027300007D106480068401E285CA04201D1012054
:1027400030BD0020FCE70000C80000201C00002075
:1027500010B500205E49087001F008FBFEF718FA7A
:1027600001211D20FFF7FCFAFFF710FBFEF738FFF1
:10277000FEF738FCFEF756FFFEF72AFF4FF4FA602B
:10278000FEF74FF84FF4614000F032FD4FF4614026
:1027900001F07CF84FF4614001F066F94DA001F0C2
:1027A0004FF84FF4164001F0F7F8FFF777FA01F011
:1027B000F5FAFEF7E7FEFEF767FD002049490870CD
:1027C00049490870494908704949086049490870F1
:1027D0004949086049490870FFF788FDFEF79AFDEE
:1027E000FDF74EFFFFF70AFAFFF7FAF9FFF73CFA99
:1027F000FFF72CFAFEF7DCFBFDF746FDFEF780F84D
:102800003F49087CFEF724F8002000F037FA01F079
:102810008FF900F079FBFEF7FDFC3AA001F010F80B
:1028200037490878032100F031FD2DA001F008F8A8
:1028300036A001F005F83249087C032100F026FD9E
:1028400027A000F0FDFF35A000F0FAFF2C494869F1
:102850000A2100F01BFD22A000F0F2FF32A000F0E0
:10286000EFFF274988690A2100F010FD1CA000F045
:10287000E7FF30A000F0E4FF214988680A2100F05A
:1028800005FD17A000F0DCFF2DA000F0D9FF1C49CA
:10289000C8680A2100F0FAFC11A000F0D1FF01F095
:1028A0007DFA4FF4FA60FDF7BCFFFEF789FE0120C8
:1028B000134981F82B001B202549087041F61F4160
:1028C00042F20F7000F0B2FBFFF7DAFB10BD000020
:1028D0000200002053797374656D20537461727423
:1028E0000D0A0000000000200D0000201400002050
:1028F0001000002004000020080000200C00002030
:102900006800002049443A2000000000C3BFBED642
:10291000D3CECFB7B1D2CAFD3A200000D3CECFB7C5
:10292000BED6CAFD3A200000B5F4B5B0D7DCCAFD6A
:102930003A200000D7DCCDB6B1D2CAFD3A20000063
:10294000CFDFCFC2CDB6B1D2CAFD3A200000000021
:10295000010000202DE9F04188B006460F46904660
:10296000002500247F208DF800008DF801601648B6
:1029700000788DF8020002208DF803008DF80470B5
:102980008DF80580012404E01DF804000544601C56
:10299000C4B2062CF8DBED43280A8DF80600E8B235
:1029A0008DF8070001F0BCF8002405E01DF80400D4
:1029B00000F0C2FF601CC4B2082CF7DB01F0A4F8E1
:1029C00008B0BDE8F0810000680000202DE9F0416A
:1029D00088B006460F469046002500247F208DF8DB
:1029E00000008DF80160294800788DF8020002206F
:1029F0008DF803008DF804708DF8058023488068F9
:102A0000000E8DF8060021488068000C8DF8070044
:102A10001E480089000A8DF808001C48007A8DF8CD
:102A200009001A48C068000E8DF80A001748C068EF
:102A3000000C8DF80B0015488089000A8DF80C00F9
:102A40001248007B8DF80D00012404E01DF80400FD
:102A50000544601CC4B20E2CF8DBED43280A8DF847
:102A60000E00E8B28DF80F0001F05AF8002405E0DE
:102A70001DF8040000F060FF601CC4B2102CF7DBEE
:102A800001F042F808B0BDE8F081000068000020C5
:102A90002DE9F04188B006460F46904600250024F7
:102AA0007F208DF800008DF80160184800788DF8BF
:102AB000020002208DF803008DF804708DF8058067
:102AC0008DF8060008208DF80700012404E01DF8A9
:102AD00004000544601CC4B2082CF8DBED43280A4E
:102AE0008DF80800E8B28DF8090001F019F800240B
:102AF00005E01DF8040000F01FFF601CC4B20A2CA2
:102B0000F7DB01F001F808B0BDE8F08168000020B3
:102B100070B598B00646002500247F208DF804008B
:102B20008DF80560414800788DF8060014208DF876
:102B3000070002208DF808003C484068000E8DF820
:102B400009003A484068000C8DF80A003748808830
:102B5000000A8DF80B00354800798DF80C003348D9
:102B6000007C8DF80D0031484069000E8DF80E0094
:102B70002E484069000C8DF80F002C48808A000A0E
:102B80008DF810002948007D8DF8110027488069D4
:102B9000000E8DF8120025488069000C8DF8130096
:102BA0002248008B000A8DF814002048007E8DF822
:102BB00015001E48007F8DF816001C48407F8DF8D8
:102BC00017001A4890F825008DF81800174890F85B
:102BD00027008DF81900154890F828008DF81A0084
:102BE000124890F829008DF81B00012404E001A888
:102BF000005D0544601CC4B2182CF8DBED43280AC4
:102C00008DF81C00E8B28DF81D0000F089FF00244B
:102C100005E001A9085D00F08FFE601CC4B21A2C0B
:102C2000F7DB00F071FF18B070BD000068000020F5
:102C300010B50446012C02D1FEF7AAF901E0FEF717
:102C400097F910BD10B50446064840682044054970
:102C500048600846806820448860FEF759FAFEF70D
:102C6000DBF910BD6800002010B5044602490C7461
:102C7000FEF74EFA10BD00006800002010B50446B3
:102C80002DA000F001FB31484470062C46D2DFE84D
:102C900004F0030E19242F3A00202C49487081F8C3
:102CA0002500FEF775F92AA000F0EEFA41E00120B8
:102CB0002649487081F82500FEF75AF927A000F050
:102CC000E3FA36E002202149487081F82500FEF73A
:102CD0004FF926A000F0D8FA2BE003201B494870DA
:102CE00081F82500FEF744F923A000F0CDFA20E09A
:102CF00004201649487081F82500FEF739F922A012
:102D000000F0C2FA15E005201049487081F825004E
:102D1000FEF72EF924A000F0B7FA0AE001200B49D3
:102D2000487081F82500FEF723F924A000F0ACFAE2
:102D300000BF00BF10BD0000C9E8D6C3BDFBD6B9B7
:102D4000D3CECFB7BBFAD7B4CCAC3A0068000020E2
:102D5000CEB4CBF8B6A80D0A00000000CFB5CDB3B5
:102D6000B8B4CEBBCBF8B6A80D0A0000B3F6B5B028
:102D7000B3ACCAB10D0A0000CDF8C2E7D6B8C1EEB7
:102D8000CBF8B6A80D0A0000CDF8C2E7D6B8C1EE60
:102D9000CBF8B6A82CB5ABCAC7CDB6B1D2C6F7B47E
:102DA000F2BFAA0D0A000000C0D6D2A1D2A1B1BEC6
:102DB000B5D8CBF8B6A80D0A00000000CFB5CDB34A
:102DC000B8B4CEBBCBF8B6A8A3A8CEB4D6AAB2CE20
:102DD000CAFDA3A90D0A0000F0B589B006460F464A
:102DE0000025002446480770FEF792F97F208DF8F1
:102DF00004008DF80560424800788DF80600172021
:102E00008DF8070001208DF808003E4800788DF805
:102E100009003C4840788DF80A003A4880788DF8DF
:102E20000B003848C0788DF80C00364800798DF8D2
:102E30000D00344840798DF80E00324880798DF8C5
:102E40000F003048C0798DF810002E48007A8DF8B8
:102E500011002C48407A8DF812002A48807A8DF8AB
:102E600013002848C07A8DF8140025484069000EE8
:102E70008DF8150022484069000C8DF81600204896
:102E8000808A000A8DF817001D48007D8DF8180013
:102E90001B488069000E8DF8190019488069000CE4
:102EA0008DF81A001648008B000A8DF81B00144894
:102EB000007E8DF81C001248007C8DF81D00012456
:102EC00004E001A8005D0544601CC4B21A2CF8DBC4
:102ED000ED43280A8DF81E00E8B28DF81F0000F0BF
:102EE0001FFE002405E001A9085D00F025FD601C1F
:102EF000C4B21C2CF7DB00F007FE09B0F0BD0000E7
:102F000068000020BC00002010B501F005F8002882
:102F100030D1FEF75DFBFEF755FEFEF789FE4FF45C
:102F20007A70FDF77EFC00F0F7FF18BBDD21002072
:102F3000FDF7EFF90FE04FF47A70FDF772FCFEF742
:102F400041FEFEF775FE4FF47A70FDF76AFCFEF75E
:102F500047FEFEF77BFE00F0DFFF0128EBD1FEF716
:102F60002FFBFEF73DFEFEF771FE00F087FF01200C
:102F700000F038FFFFF716FA0020024908700249F6
:102F8000087010BD200000204800002010B5044645
:102F9000012C04D1FEF724FEFEF758FE03E0FEF7F5
:102FA00011FEFEF745FE10BD10B50446E0B200F07C
:102FB00019FF10BD10B50121880700F089F810BD78
:102FC00010B50121174800F092F828B301211548E7
:102FD00000F07EF8144890F8230000280BDD12481A
:102FE00090F82200012806D10F4890F82300401ED7
:102FF0000D4981F823000C4890F82A0000280BDDC9
:10300000094890F82400012806D1074890F82A00C2
:10301000401E054981F82A000121024800F058F8B5
:1030200010BD000000080040680000207FB5054684
:103030000C4601210420FEF783FEADF80850ADF8E0
:1030400004400020ADF80A00ADF8060001A90B48C5
:1030500000F070F801221146084800F059F81E20CF
:103060008DF8000001208DF803006846FEF724FE6D
:103070000121024800F02FF87FBD00000008004049
:1030800010B50121064800F032F840B1054800783B
:10309000401C044908700121014800F019F810BDD6
:1030A000001000400200002010B50121014800F08E
:1030B0000FF810BD0014004021B1028842F08002D8
:1030C000028004E002884FF67F731A400280704746
:1030D000CA430282704721B1028842F00102028095
:1030E00004E002884FF6FE731A400280704730B544
:1030F0000246002000230024158A05EA0103958971
:1031000005EA010413B10CB1012000E0002030BD3C
:103110001AB183890B43838102E083898B438381C6
:10312000704702884FF6F7731A40028002880A43FC
:1031300002807047002202881D4B98420ED01D4B22
:1031400098420BD0B0F1804F08D01B4B984205D06D
:103150001A4B984202D01A4B984204D14FF68F7303
:103160001A404B881A43174B984207D0164B984287
:1031700004D04FF6FF431A40CB881A4302808B8855
:1031800083850B8803850A4B98420BD0094B9842E4
:1031900008D00E4B984205D00D4B984202D00D4BF3
:1031A000984201D10B7A0386012383827047000085
:1031B000002C0140003401400004004000080040A1
:1031C000000C00400010004000140040004001408E
:1031D000004401400048014021B1028842F004024D
:1031E000028004E002884FF6FB731A4002807047A9
:1031F00010B586B00446012144F20400FEF7B0FD8C
:103200004FF40070ADF8140003208DF8160018205C
:103210008DF8170005A91248FDF7D8FB4FF4806020
:10322000ADF8140004208DF8170005A90C48FDF72F
:10323000CDFB01940020ADF80800ADF80A00ADF810
:103240000C00ADF810000C20ADF80E0001A90548E7
:1032500000F0EEFC0121034800F082FC06B010BD36
:10326000000801400038014010B5044621460548D9
:1032700000F04FFD00BF8021024800F07DFC0028D7
:10328000F9D010BD003801407047000030B589B05A
:1032900004460D46E81E08287DD2DFE800F004272A
:1032A0005EA4F3F1F0EF6420B4FBF0F0FE49085C9B
:1032B0008DF804006420B4FBF0F100FB11400A21FA
:1032C000B0FBF1F0F849085C8DF805000A20B4FB6A
:1032D000F0F100FB1140F449085C8DF80600002075
:1032E0008DF8070001A800F0ABFA7CE242F2107002
:1032F000B4FBF0F100FB11404FF47A71B0FBF1F038
:10330000E949085C8DF804004FF47A70B4FBF0F1E1
:1033100000FB11406421B0FBF1F0E349085C8DF83B
:1033200005006420B4FBF0F100FB11400A21B0FB62
:10333000F1F0DD49085C8DF806000A20B4FBF0F1DD
:1033400000FB1140D849085C8DF8070000208DF87B
:10335000080001A800F074FA45E2D448B4FBF0F18B
:1033600000FB114042F21071B0FBF1F0CE49085C55
:103370008DF8040042F21070B4FBF0F100FB114034
:103380004FF47A71B0FBF1F0C749085C8DF8050085
:103390004FF47A7000E025E2B4FBF0F100FB11403D
:1033A0006421B0FBF1F0C049085C8DF80600642090
:1033B000B4FBF0F100FB11400A21B0FBF1F0BA4977
:1033C000085C8DF807000A20B4FBF0F100FB114007
:1033D000B549085C8DF8080000208DF8090001A8A7
:1033E00000F02EFAFFE1B148B4FBF0F0AE49085C02
:1033F0008DF80400AD48B4FBF0F100FB114042F23F
:103400001071B0FBF1F0A849085C8DF8050042F29C
:103410001070B4FBF0F100FB11404FF47A71B0FB77
:10342000F1F0A149085C8DF806004FF47A70B4FB06
:10343000F0F100FB11406421B0FBF1F09A49085C07
:103440008DF807006420B4FBF0F100FB11400A2165
:10345000B0FBF1F09449085C8DF808000A20B4FB39
:10346000F0F100FB11409049085C8DF80900002044
:103470008DF80A0001A800F0E3F9B4E137E1BBE000
:1034800057E0FFE78A48B4FBF0F08749085C8DF805
:1034900004008748B4FBF0F100FB11408349B0FB06
:1034A000F1F08149085C8DF805008048B4FBF0F12B
:1034B00000FB114042F21071B0FBF1F07A49085C58
:1034C0008DF8060042F21070B4FBF0F100FB1140E1
:1034D0004FF47A71B0FBF1F07349085C8DF8070086
:1034E0004FF47A70B4FBF0F100FB11406421B0FBA3
:1034F000F1F06D49085C8DF808006420B4FBF0F130
:1035000000FB11400A21B0FBF1F06749085C8DF81F
:1035100009000A20B4FBF0F100FB11406249085C8D
:103520008DF80A0000208DF80B0001A800F088F942
:1035300059E16048B4FBF0F05B49085C8DF8040089
:103540005C48B4FBF0F100FB11405949B0FBF1F0CD
:103550005549085C8DF805005548B4FBF0F100FBB7
:1035600011405249B0FBF1F04F49085C8DF806005C
:103570004E48B4FBF0F100FB114042F21071B0FB79
:10358000F1F04949085C8DF8070042F21070B4FB75
:10359000F0F100FB11404FF47A71B0FBF1F04249B9
:1035A000085C8DF808004FF47A70B4FBF0F100FB72
:1035B00011406421B0FBF1F03B49085C8DF8090033
:1035C0006420B4FBF0F100FB11400A21B0FBF1F0E4
:1035D0003549085C8DF80A000A20B4FBF0F100FBC5
:1035E00011403149085C8DF80B0000208DF80C006B
:1035F00001A800F025F9F6E02F48B4FBF0F02A49C5
:10360000085C8DF804002C48B4FBF0F100FB11407D
:103610002849B0FBF1F02449085C8DF805002548E5
:10362000B4FBF0F100FB11402149B0FBF1F01E4961
:10363000085C8DF806001E48B4FBF0F100FB114059
:103640001A49B0FBF1F01849085C8DF807001748DB
:10365000B4FBF0F100FB114042F21071B0FBF1F04D
:103660001149085C8DF8080042F21070B4FBF0F1CB
:1036700000FB11404FF47A71B0FBF1F00A49085C8D
:103680008DF809004FF47A70B4FBF0F100FB1140A3
:103690006421B0FBF1F00449085C8DF80A00642055
:1036A000B4FBF0F10AE0000034000020A086010025
:1036B00040420F008096980000E1F50500FB1140A4
:1036C0000A21B0FBF1F04949085C8DF80B000A2093
:1036D000B4FBF0F100FB11404449085C8DF80C008C
:1036E00000208DF80D0001A800F0AAF87BE040480A
:1036F000B4FBF0F03D49085C8DF804003C48B4FB95
:10370000F0F100FB11403B49B0FBF1F03749085C98
:103710008DF805003748B4FBF0F100FB1140364945
:10372000B0FBF1F03149085C8DF806003248B4FB7B
:10373000F0F100FB11403149B0FBF1F02B49085C7E
:103740008DF807002D48B4FBF0F100FB11402C4927
:10375000B0FBF1F02549085C8DF808002848B4FB5F
:10376000F0F100FB114042F21071B0FBF1F01F4983
:10377000085C8DF8090042F21070B4FBF0F100FB18
:1037800011404FF47A71B0FBF1F01849085C8DF8E4
:103790000A004FF47A70B4FBF0F100FB1140642191
:1037A000B0FBF1F01149085C8DF80B006420B4FB0C
:1037B000F0F100FB11400A21B0FBF1F00B49085C6D
:1037C0008DF80C000A20B4FBF0F100FB1140074912
:1037D000085C8DF80D0000208DF80E0001A800F0A7
:1037E0002FF800E000BF00BF09B030BD340000205A
:1037F00000CA9A3B00E1F5058096980040420F0010
:10380000A08601001CB5044600208DF8040030207D
:103810008DF8000078208DF80100084800EB1410A6
:1038200000788DF8020004F00F000449085C8DF860
:103830000300684600F004F81CBD000034000020BE
:1038400010B5044603E02078FFF70EFD641C2078D5
:103850000028F8D110BD000010B540F225510848ED
:1038600000F097F958B1064800F04EFA0549064AAB
:103870001268885404480068401C0349086010BD61
:1038800000440040C80000201C00002010B586B095
:10389000044601210420FEF763FA01214804FEF7E3
:1038A0004FFA0420ADF8140018208DF817000320FB
:1038B0008DF8160005A91E48FDF788F80820ADF818
:1038C000140004208DF8170005A91948FDF77EF8AB
:1038D0004FF4E060FEF728FA26208DF80000012062
:1038E0008DF8010000208DF8020001208DF8030002
:1038F0006846FEF7E1F901940020ADF80800ADF844
:103900000A00ADF80C00ADF810000C20ADF80E0068
:1039100001A9084800F08CF90121064800F020F9BF
:10392000012240F22551034800F05DF906B010BDB8
:10393000000801400044004010B5044621460548F7
:1039400000F0E7F900BF8021024800F015F90028D7
:10395000F9D010BD0044004010B540F225510A488E
:1039600000F017F970B1084800F0CEF90749084A8D
:103970001268885406480068401C05490860002009
:103980000449087010BD00000048004008010020F4
:10399000440000200200002010B586B0044601213A
:1039A0000820FEF7DDF901218804FEF7C9F94FF47C
:1039B000E060FEF7B9F927208DF8000001208DF8AE
:1039C000010000208DF8020001208DF803006846F8
:1039D000FEF772F94FF48060ADF8140018208DF8EE
:1039E000170003208DF8160005A91548FCF7EEFF17
:1039F0004FF40060ADF8140048208DF8170005A9B9
:103A00000F48FCF7E3FF01940020ADF80800ADF883
:103A10000A00ADF80C00ADF810000C20ADF80E0057
:103A200001A9084800F004F90121064800F098F8BF
:103A3000012240F22551034800F0D5F806B010BD30
:103A4000000C01400048004010B5044621460548DE
:103A500000F05FF900BF8021024800F08DF80028D7
:103A6000F9D010BD0048004010B586B004460121D1
:103A70001020FEF775F90121C804FEF761F94FF433
:103A80008060ADF8140018208DF8170003208DF821
:103A9000160005A91248FCF799FF4FF40060ADF835
:103AA000140004208DF8170005A90D48FCF78EFFBF
:103AB00001940020ADF80800ADF80A00ADF80C0044
:103AC000ADF810000C20ADF80E0001A9054800F07B
:103AD000AFF80121034800F043F806B010BD000024
:103AE00000100140004C004010B504462146054836
:103AF00000F00FF900BF8021024800F03DF80028D7
:103B0000F9D010BD004C004010B51E20FCF789FE16
:103B100010210248FDF737F810BD000000080140F1
:103B200010B510210148FDF730F810BD0008014024
:103B300008B501210420FEF713F91020ADF80000AC
:103B400003208DF8020010208DF803006946034819
:103B5000FCF73CFFFFF7D8FF08BD0000000801405C
:103B600021B1828942F40052828104E082894DF6BB
:103B7000FF731A408281704702460020B1F5007F32
:103B800000D100BF13880B400BB1012000E00020E2
:103B9000704770B50246002400230025002040F63F
:103BA0006A16B14200D100BFC1F3421501F01F03F4
:103BB000012606FA03F3012D02D19689334006E06F
:103BC000022D02D1168A334001E0968A33400C124E
:103BD000012606FA04F41688344013B10CB1012012
:103BE00000E0002070BDF0B503460024002600254B
:103BF000002040F66A17B94200D100BF1846C1F351
:103C0000421401F01F06012707FA06F5012C01D125
:103C10000C3004E0022C01D1103000E014301AB155
:103C200007682F43076002E00768AF430760F0BDF5
:103C30002DE9F04786B005460E460024A24600BF97
:103C4000A1460027B08900B100BF2F462C8A4CF650
:103C5000FF700440F08804432C82AC894EF6F310C8
:103C60000440B08831890843718908430443AC811A
:103C7000AC8A4FF6FF400440B0890443AC8201A8EF
:103C8000FEF7E8F81F48874202D1DDF810A001E0F6
:103C9000DDF80CA0A88900F4004040B10AEBCA008E
:103CA00000EB0A1031684900B0FBF1F807E00AEBBD
:103CB000CA0000EB0A1031688900B0FBF1F86420FB
:103CC000B8FBF0F004012009642101FB1089A889E8
:103CD00000F4004040B1322000EBC900B0FBF1F02D
:103CE00000F00700044308E0322000EB09106421D3
:103CF000B0FBF1F000F00F0004432C8106B0BDE8EA
:103D0000F08700000038014001468888C0F30800B1
:103D10007047C1F308028280704700BFFEE70000D1
:103D200010B54FF400710448FCF724FF012800D1BE
:103D300010BD0020FCE70000000C014010B5202160
:103D40000148FCF720FF10BD000C014010B50548EC
:103D5000007830B920210448FCF717FF0120014901
:103D6000087010BD00000020000C014008B50121C2
:103D70000820FDF7F5FF2020ADF8000010208DF899
:103D8000030003208DF8020069460348FCF71EFE7D
:103D9000FFF7D4FF08BD0000000C014008B5012169
:103DA0000820FDF7DDFF4FF48070ADF80000102013
:103DB0008DF8030003208DF8020069460848FCF7DF
:103DC00005FE4FF40070ADF8000004208DF80300EC
:103DD00003208DF8020069460148FCF7F7FD08BD95
:103DE000000C014070B50446FFF7B0FF4FF480713E
:103DF0002148FCF7CAFE0A20FCF713FD4FF480713E
:103E00001D48FCF7C0FE4FF4FA60FCF716FD0025D4
:103E10002AE004F0010090B14FF480711648FCF7DD
:103E2000B4FE4FF41660FCF708FD4FF480711248A1
:103E3000FCF7A9FE4FF44870FCF7FFFC11E04FF4CB
:103E400080710D48FCF7A1FE4FF44870FCF7F5FCBB
:103E50004FF480710848FCF796FE4FF41660FCF7AB
:103E6000ECFC6410681CC5B2082DD2DB4FF48071E5
:103E70000148FCF78AFE70BD000C014010B5FE2021
:103E8000FFF7B0FF10BD70B505460C46FCF736FCD9
:103E90002846FCF791FC3220FCF76CFC2046FCF72E
:103EA0008BFC3220FCF766FCFCF744FC70BD000084
:103EB00010B5002411A0FFF7C3FC00BF08E01149B2
:103EC000085DFFF79FFC0EA0FFF7BAFC601CC4B2B0
:103ED0000D4800688442F2D30CA0FFF7B1FC0CA09F
:103EE000FFF7AEFC042108480068FFF7CFF907A0F0
:103EF000FFF7A6FCC820FCF794FC10BD5265633A9E
:103F00002000000008010020440000200D0A0000ED
:103F1000436F756E743A200010B54FF4805102481B
:103F2000FCF728FE10BD0000000C014030B58FB03A
:103F30000025002400BF03E000200DF80400641CED
:103F40003C2CF9D3AA208DF8000005208DF8010043
:103F500002208DF8020005208DF803001D4890F81E
:103F600028008DF804001B4890F827008DF8050004
:103F700000208DF80600DD208DF807000A208DF85E
:103F80000800012403E01DF804004540641C062CD1
:103F9000F9D3E8B28DF80600002404E01DF804000F
:103FA000FFF752FD641C092CF8D30BA0FFF748FC67
:103FB000002407E01DF80400FFF724FC0AA0FFF727
:103FC0003FFC641C092CF5D308A0FFF739FC002046
:103FD0000FB030BD68000020BBF9B4A1B2CECAFD5D
:103FE000B7B5BBD83A200000200000000D0A000041
:103FF00030B58FB00025002400BF03E000200DF88D
:104000000400641C3C2CF9D32AA0FFF719FCFFF72D
:104010004FFF2D48407A012803D10520FEF72EFEE0
:1040200002E00020FEF72AFEAA208DF800000620FC
:104030008DF8010002208DF80200CC208DF80300DD
:1040400001208DF8040009208DF8050001208DF86D
:10405000060000208DF80700DD208DF808000A20FA
:104060008DF80900012403E01DF804004540641C9C
:10407000072CF9D3E8B28DF80700002404E01DF8FE
:104080000400FFF7E1FC641C0B2CF8D30FA0FFF732
:10409000D7FB002407E01DF80400FFF7B3FB0FA0D7
:1040A000FFF7CEFB641C0A2CF5D30DA0FFF7C8FB6D
:1040B0000FB030BDC9E8D6C3B2D6CEBBD0C5CFA2F3
:1040C000D6B8C1EE3A0D0A0008010020B2D6CEBB28
:1040D000D0C5CFA2B7B5BBD83A2000002000000061
:1040E0000D0A000030B58FB00025002400BF03E0AA
:1040F00000200DF80400641C3C2CF9D330A0FFF71D
:104100009FFBFFF7D5FE32488079012813D1304854
:10411000C07980B92E48007A012803D100208DF89B
:10412000060008E02A48007A2A490874FCF7F0FFE4
:1041300001208DF80600AA208DF8000006208DF8D9
:10414000010002208DF80200CC208DF80300012030
:104150008DF8040007208DF8050000208DF8070079
:10416000DD208DF808000A208DF80900012403E005
:104170001DF804004540641C072CF9D3E8B28DF803
:104180000700002404E01DF80400FFF75DFC641C38
:104190000A2CF8D310A0FFF753FB002407E01DF80A
:1041A0000400FFF72FFB11A0FFF74AFB641C0A2C49
:1041B000F5D30FA0FFF744FB00200FB030BD000087
:1041C000C9E8D6C3D3CECFB7B1D2CAFD3A0D0A00E3
:1041D0000801002068000020C9E8D6C3D3CECFB7BD
:1041E000B1D2CAFDB7B5BBD83A200000200000000C
:1041F0000D0A000030B58FB00025002400BF04E098
:1042000000200DF80400601CC4B23C2CF8DBAA208E
:104210008DF800000D208DF8010002208DF80200BD
:10422000CC208DF8030001208DF8040003208DF8C8
:10423000050001208DF806002648C0798DF807009A
:104240002448007A8DF808002248407A8DF8090049
:104250002048807A8DF80A001E48C07A8DF80B003D
:104260001C48007B8DF80C0000208DF80D008DF8A7
:104270000E00DD208DF80F00012404E01DF804007D
:104280004540601CC4B20E2CF8DB8DF80E504FF484
:10429000FA70FCF7C6FA002405E01DF80400FFF7E9
:1042A000D3FB601CC4B2102CF7DB0BA0FFF7C8FADD
:1042B000002408E01DF80400FFF7A4FA0BA0FFF7A4
:1042C000BFFA601CC4B2102CF4DB09A0FFF7B8FAE7
:1042D0000FB030BD08010020D6A7B8B6C7EBC7F3B2
:1042E000B7B5BBD8D6B8C1EE3A2000002000000018
:1042F0000D0A000030B58FB00025002400BF04E097
:1043000000200DF80400601CC4B23C2CF8DBAA208D
:104310008DF800000D208DF8010002208DF80200BC
:10432000CC208DF8030001208DF8040003208DF8C7
:10433000050001208DF806002748C0798DF8070098
:104340002548007A8DF808002348407A8DF8090046
:104350002148807A8DF80A001F48C07A8DF80B003A
:104360001D48007B8DF80C0003208DF80D00002007
:104370008DF80E00DD208DF80F00012404E01DF8FB
:1043800004004540601CC4B20E2CF8DB8DF80E50C2
:104390004FF4FA70FCF745FA002405E01DF804001C
:1043A000FFF752FB601CC4B2102CF7DB0BA0FFF729
:1043B00047FA002408E01DF80400FFF723FA0FA0D5
:1043C000FFF73EFA601CC4B2102CF4DB0CA0FFF720
:1043D00037FA0FB030BD000008010020D6A7B8B6EC
:1043E000C7EBC7F3D2ECB3A3B7B5BBD8D6B8C1EE11
:1043F00028D6F7B0E5B7A2293A2000002000000037
:104400000D0A000070B590B005463D480078FFF7F2
:104410001BFB0020FFF718FB0020FFF715FB0C200B
:10442000FFF712FB0C20FFF70FFB0C20FFF70CFB34
:104430000C20FFF709FB0026002400BF03E000204A
:1044400001A90855641C3C2CF9D3AA208DF804005E
:104450000A208DF8050002208DF8060013208DF843
:104460000700274800788DF808008DF809500020D3
:104470008DF80A008DF80B008DF80C008DF80D00FA
:104480008DF80E008DF80F00DD208DF810000A2049
:104490008DF81100012403E001A8005D4640641C72
:1044A0000B2CF9D3F0B28DF80F00002404E001A921
:1044B000085DFFF7C9FA641C0E2CF8D311A0FFF7B2
:1044C000BFF9002407E001A9085DFFF79BF910A0E0
:1044D000FFF7B6F9641C0E2CF5D30EA0FFF7B0F968
:1044E00007480078FF2805DA05480078401C044991
:1044F000087002E000200249087010B070BD000092
:1045000001000020C9CFB1A8B4EDCEF3A3A1A3A1AF
:10451000200000000D0A000030B58FB000250024F7
:1045200052A0FFF78DF900BF04E000200DF8040051
:10453000601CC4B23C2CF8DB5048C079504908706C
:104540004E48007A48704D48407A88704B48807ACF
:10455000C8704A48C07A08714848007B487147488B
:10456000407B48490870AA208DF800000E208DF885
:10457000010002208DF80200CC208DF803000120FC
:104580008DF8040004208DF8050001208DF8060048
:104590003A48C0798DF807003848007A8DF808004D
:1045A0003648407A8DF809003448807A8DF80A0040
:1045B0003248C07A8DF80B003048007B8DF80C0033
:1045C0002E48407B8DF80D002C48807B8DF80E0026
:1045D00000208DF80F00DD208DF81000012404E08C
:1045E0001DF804004540601CC4B20F2CF8DB8DF8A8
:1045F0000F504FF4FA70FCF714F9002405E01DF891
:104600000400FFF721FA601CC4B2112CF7DB1EA0D6
:10461000FFF716F9002408E01DF80400FFF7F2F890
:104620001FA0FFF70DF9601CC4B2112CF4DB1DA014
:10463000FFF706F91149487BFEF704FB1A4840686A
:104640001949097C88420FD30020FFF7CBFB16489D
:1046500090F85000012803D00120134981F822006E
:104660001420114981F823000FB030BDD4C6C9CF42
:10467000B7D6B9A6C4DC0D0A00000000080100206E
:104680004801002050000020D4C6C9CFB7D6B9A633
:10469000C4DCB7B5BBD8D6B8C1EE3A2000000000E4
:1046A000200000000D0A00006800002070B590B0E6
:1046B00005460026002400BF04E0002001A908559B
:1046C000601CC4B23C2CF8DBAA208DF804000E203C
:1046D0008DF8050002208DF80600CC208DF807002B
:1046E00001208DF8080005208DF8090001208DF8C3
:1046F0000A00394800788DF80B00374840788DF86B
:104700000C00354880788DF80D003348C0788DF85E
:104710000E00314800798DF80F002F4840798DF850
:10472000100025B12D4800788DF8110002E000201E
:104730008DF811002A48807B8DF8120000208DF83A
:104740001300DD208DF81400012404E001A8005DB1
:104750004640601CC4B20F2CF8DB8DF813604FF498
:10476000FA70FCF75EF8002405E001A9085DFFF788
:104770006BF9601CC4B2112CF7DB1AA0FFF760F8CC
:10478000002408E001A9085DFFF73CF81CA0FFF732
:1047900057F8601CC4B2112CF4DB1AA0FFF750F8D4
:1047A0000F49887BFEF74EFA174840681649097C86
:1047B00088420FD30020FFF715FB134890F85000F4
:1047C000012803D00120104981F8220014200E494D
:1047D00081F8230010B070BD480100205000002077
:1047E00008010020D4C6C9CFB7D6BDE1B9FBB7B523
:1047F000BBD828D6F7B0E5B7A2293A2000000000C0
:10480000200000000D0A00006800002010B51CA068
:10481000FFF716F81F48007980BB1E48407968BB37
:104820001C48807950BB1B48C07938BBAA20FFF7D1
:104830000BF90520FFF708F90220FFF705F9012021
:10484000FFF702F93020FFF7FFF81020FFF7FCF820
:104850002620FFF7F9F8DD20FFF7F6F80A20FFF72A
:10486000F3F840F6B830FBF7DCFFFDF747FC40F209
:10487000DC50FBF7D6FF0020FFF7C4FD10BD0000A1
:10488000C0D6D2A1D2A1B2E2CAD4C1ACBDD33A0D36
:104890000A00000008010020002500260024FDF782
:1048A00057FF3DE0E843C5B22846FCF77FFEFBF723
:1048B00001FEFCF703FBFBF7B3FDFBF753FD1948C3
:1048C00090F8250020B1174890F8250004280ED153
:1048D0001448007C13494968441A002C00DA00246B
:1048E000B44206D02046FBF7B3FF264601E0FBF7B3
:1048F000F4FFFBF7E5FDFDF773FDFCF7B9FE0A4891
:10490000007801280CDD08480078022803DD032028
:104910000549087004E00548007808B9FCF78AFEEC
:10492000C0E70000680000200200002048000020CE
:1049300010B5FCF7DBFC114908630846006B012841
:1049400016D10F480078022808D1084690F8480090
:10495000012803D0012081F8480009E01420FBF76A
:1049600060FFFFF7DDF9012802D10720FFF73AFACF
:10497000024890F830000149087710BD6800002017
:104980000D00002010B5FCF7BDFC184988630846EF
:10499000806B012823D10A20FBF743FF134890F8CE
:1049A0002600012811D1114890F8500001280CD19F
:1049B000FFF764FA0EA0FEF743FF0720FFF712FA95
:1049C00000200A4981F8260009E0FFF7A9F901282B
:1049D00005D10AA0FEF734FF0720FFF703FA0348CA
:1049E00090F838000149487710BD000068000020A9
:1049F0003535353535350D0A00000000363636368A
:104A000036360D0A0000000070B500BF04210C48C6
:104A1000FCF7B0F8054608210A48FCF7ABF800EBB4
:104A2000800005EB400510210648FCF7A3F800EBD9
:104A3000C00101EB001005EB8000C4B2204670BD40
:104A400000140140000C0140014600200A291AD23E
:104A5000DFE801F00507090B0D0F111315173F20B3
:104A600012E0062010E05B200EE04F200CE06620F4
:104A70000AE06D2008E07D2006E0072004E07F20AA
:104A800002E06F2000E000BF00BF7047AC4A0008A2
:104A900000000020680000006C010008144B0008B2
:104AA0006800002050070000880100080000000096
:104AB00000000000000000000000000000000000F6
:104AC00000000000FC550000000000000000000095
:104AD00000000000000000000000000000000000D6
:104AE0003031323334353637383941424344454624
:104AF00000000000000000000000000000000000B6
:104B00000001020304010203040607080902040667
:044B10000800000099
:0400000508000131BD
:00000001FF
